:020000040800F2
:10000000F0B90020ED0200088119000897150008DA
:100010007D190008F9090008A91B0008000000006C
:100020000000000000000000000000002D02000899
:10003000FD0900080000000089020008591A0008A4
:100040000703000807030008070300080703000868
:100050000703000807030008070300080703000858
:100060000703000807030008070300080703000848
:100070000703000807030008070300080703000838
:100080000703000807030008070300080703000828
:100090000703000807030008070300080703000818
:1000A0000703000807030008070300080703000808
:1000B00007030008070300080703000807030008F8
:1000C00007030008070300080703000807030008E8
:1000D00007030008951B0008070300080703000832
:1000E00007030008070300080703000807030008C8
:1000F00007030008BD1A00080703000807030008EB
:1001000007030008070300080703000807030008A7
:100110000703000807030008070300080703000897
:100120000703000807030008070300080703000887
:100130000703000807030008070300080703000877
:100140000703000807030008070300080703000867
:100150000703000807030008070300080703000857
:100160000703000807030008070300080703000847
:100170000703000807030008070300080000000049
:10018000070300080703000800F002F800F03EF83B
:100190000AA090E8000C82448344AAF10107DA45E2
:1001A00001D100F033F8AFF2090EBAE80F0013F0F6
:1001B000010F18BFFB1A43F0010318477C6B0000C6
:1001C0009C6B0000103A24BF78C878C1FAD8520757
:1001D00024BF30C830C144BF04680C6070470000C1
:1001E0000023002400250026103A28BF78C1FBD840
:1001F000520728BF30C148BF0B6070471FB505F0DC
:10020000FDFE00F063FA1FBD10B510BD00F09AFAB4
:100210001146FFF7F3FF04F02FFB00F0B8FA03B428
:10022000FFF7F2FF03BC00F087FA00002C4B1968BF
:100230000868B0E8F04F80F30988BFF36F8F4FF084
:10024000000080F311887047000000000848006833
:10025000006880F308884FF0000080F3148862B6CD
:1002600061B6BFF34F8FBFF36F8F00DF00BF00BFDA
:1002700008ED00E0DFF80C00016841F47001016056
:10028000704700BF88ED00E0EFF30980BFF36F8F88
:10029000134B1A681EF0100F08BF20ED108A20E9DA
:1002A000F04F106009B44FF0500080F31188BFF395
:1002B0004F8FBFF36F8F05F0B5FC4FF0000080F358
:1002C000118809BC19680868B0E8F04F1EF0100FDB
:1002D00008BFB0EC108A80F30988BFF36F8F7047B6
:1002E00008000020EFF305807047000009488047B0
:1002F00009480047FEE7FEE7FEE7FEE7FEE7FEE708
:10030000FEE7FEE7FEE7FEE704480549054A064B1F
:1003100070470000691A000889010008F0A1002058
:10032000F0B90020F0A90020F0A9002053EA020C47
:1003300000F069802DE9F04B4FF00006002B1FBF45
:10034000B3FA83F503FA05F424FA05F65E4012BF0A
:100350001643B2FA82F502FA05F4C5F120051EBF74
:1003600022FA05FC44EA0C04203556EA044C4FEA14
:10037000144418BF641C4FF000084FF0000990426D
:1003800071EB030C39D3002919BFB1FA81F701FAD7
:1003900007F6B0FA80F700FA07F6C7F120071EBF8C
:1003A00020FA07FC46EA0C062037B6FBF4FCA7EB64
:1003B0000507103F07F01F0BCBF120060CFA0BFBD3
:1003C0002CFA06F644BFB3460026202FA4BF5E4693
:1003D0004FF0000B5BEA060C08BF4FF0010B19EB66
:1003E0000B09ABFB027C48EB0608C01B06FB02CCEA
:1003F0000BFB03CC71EB0C01C1E70B4602464146F7
:100400004846BDE8F08B13B54FF000004FF00001F7
:10041000AFF30080BDE81C40704730B505460B4681
:100420002A4613F8014B12F8010B08B1A042F8D08C
:100430001CB1002802D06D1CF1E7284630BD40EA0F
:100440000103024630B59B0710D14FF0013400E0A4
:1004500008C208C91D1B9D4315EAC41FF8D013F03C
:10046000FF0102F8011B0DD01B0AF8E711F8013B50
:10047000002B02F8013B05D011F8013B002B02F8DC
:10048000013BF3D130BD10B5431C02E010F8011B55
:1004900071B18107FAD14FF0013202C88C1A8C4336
:1004A00014EAC211F9D0C01A0A0603D0C01E10BD4A
:1004B000C01A10BD0A0401D0801E10BD0902FCD074
:1004C000401E10BD032A40F2308010F0030C00F0F3
:1004D000158011F8013BBCF1020F624498BF11F87E
:1004E00001CB00F8013B38BF11F8013BA2F1040237
:1004F00098BF00F801CB38BF00F8013B11F00303AF
:1005000000F02580083AC0F0088051F8043B083A12
:1005100051F804CBA0E80810F5E7121D5CBF51F8B4
:10052000043B40F8043BAFF30080D20724BF11F82E
:10053000013B11F801CB48BF11F8012B24BF00F893
:10054000013B00F801CB48BF00F8012B704710B504
:10055000203AC0F00B80B1E81850203AA0E81850BB
:10056000B1E81850A0E81850BFF4F5AF5FEA027C7C
:1005700024BFB1E81850A0E8185044BF18C918C0EB
:10058000BDE810405FEA827C24BF51F8043B40F88C
:10059000043B08BF7047D20728BF31F8023B48BF71
:1005A00011F8012B28BF20F8023B48BF00F8012BAF
:1005B00070474FF000020429C0F0128010F0030CC5
:1005C00000F01B80CCF1040CBCF1020F18BF00F846
:1005D000012BA8BF20F8022BA1EB0C0100F00DB8F5
:1005E0005FEAC17C24BF00F8012B00F8012B48BF53
:1005F00000F8012B70474FF0000200B513469446F7
:100600009646203922BFA0E80C50A0E80C50B1F16A
:100610002001BFF4F7AF090728BFA0E80C5048BF7E
:100620000CC05DF804EB890028BF40F8042B08BF1C
:10063000704748BF20F8022B11F0804F18BF00F818
:10064000012B70474FF0013C50F8042B51F8043B4C
:100650009A4221D1A2EB0C03934313EACC1317D196
:1006600050F8042B51F8043B9A4215D1A2EB0C032D
:10067000934313EACC130BD150F8042B51F8043BED
:100680009A4209D1A2EB0C03934313EACC13DBD0BB
:100690004FF00000704700BFD01A01BAB1FA81F1E3
:1006A00001F0180122FA01F0CB40C1F12001DBB2C8
:1006B000C0B2C01A2CFA01F3D11A914311EAC31146
:1006C000E6D17047704770477047000070B5064C20
:1006D0007C44064D7D4403E0206820448047241D6F
:1006E000AC42F9D170BD000084660000A066000035
:1006F00010B500F009F8BDE81040AFF30080002805
:1007000001D000F019B8704710B5002102A000F028
:1007100047F8012010BD00005349475056464E3A55
:100720002050757265207669727475616C20666EF2
:100730002063616C6C65640001491820ABBEFEE764
:1007400026000200754600F04BF8AE4605006946EB
:10075000534620F00700854618B020B5FFF7D4FDBA
:10076000BDE820404FF000064FF000074FF00008B2
:100770004FF0000B21F00701AC46ACE8C009ACE833
:10078000C009ACE8C009ACE8C0098D46704710B597
:100790000446AFF300802046BDE81040FFF73FBDA0
:1007A00070B505460C460A2000E06D1C00F011F8FB
:1007B00035B128780028F8D102E0641C00F009F86F
:1007C00014B120780028F8D1BDE870400A20AFF3BA
:1007D000008008B569468DF800000320ABBE08BD57
:1007E0000048704790A10020704700003EB5544873
:1007F00003F042FD3221524803F060FD01F050FA4F
:1008000001F024FA01F0FEF94E4802F05BFD4EA122
:100810004C4802F032FD504803F08AF801214E485E
:1008200003F082F84DA1474802F0D6FC00F04CFAE4
:10083000044600204FF4A075CDE900500246014661
:10084000F023454803F03EFA00F03EFA011B0A226D
:100850003C4802F02AFD02214548CDE900012B4623
:10086000F0224449203002F009F841494FF4F040A9
:10087000403948823E4840A1203002F011F83C48FF
:100880003FA11438044602F0F8FC3948403803F020
:1008900026FC3748343002F0A1FE00284AD03DA1A2
:1008A000204602F0EAFC3248403803F018FC01F020
:1008B000C7FB2F480021343002F05FFD2C48002197
:1008C000343002F0D2FD2A480021343002F0AFFD6E
:1008D00027480021343002F045FD254800213430FE
:1008E00002F045FE22480123F0222946343002F06E
:1008F00002FF2EA1204602F06FFC1D4802AA202113
:10090000343002F0E1FE10229DF80810204602F07B
:10091000C0FC1748403803F0E2FB4FF4FA6000F0E7
:10092000DBF828A1204602F0A8FC1148403803F06B
:10093000D6FB3EBD2BA1204602F09FFCE9E700005C
:10094000EC000020E400002073797374656D206969
:100950006E6974202E2E2E00E8810020666C75735F
:10096000682073637265656E20746573743A200045
:10097000E8460020691D00086D61696E00000000F6
:1009800073637265656E20696E6974207375636345
:10099000657373006F763737323520696E6974205E
:1009A0007375636365737321000000006F763737DA
:1009B000323520636F6D31312076616C75653A2078
:1009C00000000000726561647920746F20656E74A8
:1009D0006572207461736B207363686564756C6500
:1009E000720000006F763737323520696E697420E7
:1009F0006661696C2100000000BFFEE770470000DF
:100A000070B5B3F5804F05D06FF0704140F82210FB
:100A1000002070BD50F82230084C2340D1E9004539
:100A200044EA05148D688E892D0245EA06458969D8
:100A30002C430C431C4340F82240E9E70000F0CF70
:100A4000F0B50C6850F82450114A1540D1E9012343
:100A5000D1E903671A433E4332434E6932438E69FC
:100A60003243CE6932430E6A32434E6A32438E6A53
:100A70003243CE6A3243CE6B096B32430A432A4378
:100A8000082B01D142F0400240F824200020F0BDA4
:100A90008000F0FF30B500EB82004268D1E90034FD
:100AA00043EA04138C688D89240244EA05442343F5
:100AB0000C8A084D02F0404205EB045423430C7DA0
:100AC0006D0105EB0464896923430B4313434360C1
:100AD000002030BD0000F0FF70B5044600F0F4F8CF
:100AE0000546601C02D004480078044400F0ECF88D
:100AF000401BA042FAD370BD680000202DE9F84FDA
:100B0000DFF88C91002209F1040A0AF1040B4FF07E
:100B10000F080BF1040E01260B6896403340B342D8
:100B200071D14C68022C01D0122C11D1D40800EBE9
:100B300084073D6A5407E40E08FA04FC25EA0C0514
:100B4000D1F810C00CFA04FC4CEA050CC7F820C020
:100B500007685400032591F804C0A5400CF0030C6D
:100B6000AF430CFA04FC4CEA070CC0F800C04F6815
:100B7000012F05D0022F03D0112F01D0122F11D138
:100B80008768D1F80CC0AF430CFA04FC4CEA070CA0
:100B9000C0F808C04768B7430E79C6F30016964000
:100BA0003E434660C668AE438D68A5403543C56088
:100BB0004C68E40065D5374C256845F480452560D0
:100BC000246822F0030504F480440094324C2E196A
:100BD000D6F808789407250F08FA05F4A7432F4C98
:100BE000A04201D1002424E02D4CA04201D10124D7
:100BF0001FE02C4CA04201D102241AE02A4CA04252
:100C000002D1032415E03CE0284CA04201D1042489
:100C10000FE0274CA04201D105240AE0254CA04258
:100C200001D1062405E0244CA04201D1072400E0B4
:100C30000824AC403C43C6F80848D9F800404D466B
:100C40004E689C43F60300D51C432C60DAF8004044
:100C500055464E689C43B60300D51C432C60DBF818
:100C600000405D464E689C43F60200D51C432C6054
:100C7000DEF8004075464E689C43B60200D51C4322
:100C80002C60521C102AFFF446AFBDE8F88F00001C
:100C9000003C014044380240003001400000024066
:100CA0000004024000080240000C02400010024014
:100CB0000014024000180240001C02400069084075
:100CC00000D0012070470000014880687047000094
:100CD00068000020024881680278114481607047F2
:100CE000680000200B4810B5016841F400710160F4
:100CF000016841F480610160016841F48071016024
:100D0000032000F08DF80F2000F006F800F03EF808
:100D1000002010BD003C024010B5014688B0002202
:100D20002D2000F05DF82D2000F04CF81348002431
:100D3000016841F480710160006805A900F48070C9
:100D40000690684600F016F900F034F90C494000AE
:100D5000B0FBF1F10C480B4A491E026040F2E73249
:100D6000C0E90324C0E9011400F026FB10B1012002
:100D700008B010BD044800F03BFBF9E740380240E2
:100D800040420F0000200040480300200C4882B081
:100D9000016841F480410160006800F480400090E7
:100DA0000748001F016841F080510160006800227F
:100DB00000F0805000900F21901E02B000F010B89B
:100DC00044380240002809DB00F01F020121914055
:100DD0004009800000F1E020C0F8001170470000D9
:100DE000F0B40E4B1B68C3F30223C3F10704042CB9
:100DF00000D904241D1D072D01D2002300E0DB1EB5
:100E0000012606FA04F56D1E0D409D409E40761E9B
:100E1000164045EA0601F0BC03F07FBB0CED00E094
:100E2000064A00F0070110684FF6FF03184040EA39
:100E30000120034908431060704700000CED00E0FA
:100E40000000FA052DE9F0470D46040065D0DFF8F3
:100E50001491D9F80000EFB200F00F00A84207D2B9
:100E600089F80070D9F8000000F00F00A84254D1B2
:100E700020683D4E810712D5400703D5306840F405
:100E8000E05030602078000703D5306840F46040BF
:100E900030603068A16820F0F000084330602078AE
:100EA000C0072DD0304960680839012812D00228C7
:100EB00013D0032811D00968890700292DDA316879
:100EC00021F0030101433160FFF7FEFE804641F24D
:100ED000883A0EE009688903EFE709688901ECE7C1
:100EE000FFF7F2FEA0EB0801514502D90320BDE84F
:100EF000F0873068616800F00C00B0EB810FEFD133
:100F0000D9F80010484601F00F01A94207D907702F
:100F1000006800F00F00A84201D00120E7E7207828
:100F2000400705D53068E16820F4E05008433060A0
:100F30002078000706D53068216920F4604040EA37
:100F4000C100306000F046F83168084AC1F303116F
:100F5000515CC840064908600F20FFF7DDFE002005
:100F6000C5E70000003C0240083802402460000849
:100F7000040000200F2202600C4A136803F00303F0
:100F80004360136803F0F0038360136803F4E053D5
:100F9000C36012684FF4E05303EAD20202610448CE
:100FA000006800F00F000860704700000838024039
:100FB000003C02400448054900680968044AC1F33E
:100FC0008221515CC840704704000020083802406C
:100FD00034600008154810B5006810F00C01144882
:100FE00013D0431004290FD008290ED10F4C241F11
:100FF000216801F03F022168490207D52068C0F34B
:101000008810A0FB030106E0184610BD2168C1F35B
:101010008811A1FB00010023FFF788F92168C1F3C3
:101020000141491C4900B0FBF1F010BD08380240F5
:101030000024F4002DE9F84F040073D02078BD4D52
:10104000C00748D0BB4808300168C1F381010129BD
:1010500008D00068C0F3810002280AD1281D00686A
:10106000400206D52868800335D560680028E4D0A2
:1010700031E06068B0F5803F10D0B0F5A02F28684F
:1010800010D020F480302860286820F48020286068
:101090006068A0B1FFF718FE06460CE0286840F42F
:1010A0008030F4E740F480202860F7E7FFF70CFE7B
:1010B000801B642872D828688003F7D50BE0FFF7FF
:1010C00003FE064604E0FFF7FFFD801B6428F1D80D
:1010D00028688003F7D42078DFF85C9280074FF00F
:1010E000000A3ED593480830016811F00C0F09D072
:1010F0000068C0F3810002280BD18E48001D0068F3
:10110000400206D42868800715D5E068012809D177
:1011100011E0E068B8B10120C9F80000FFF7D4FD84
:10112000064605E003E1FFF7CFFD801B0228C1D88A
:1011300028688007F7D52868216920F0F80040EA80
:10114000C10028600DE0C9F800A0FFF7BDFD06460C
:1011500004E0FFF7B9FD801B02281FD8286880072C
:10116000F7D42078000722D5724F7449606974372C
:1011700070B101200860FFF7A7FD064604E0FFF705
:10118000A3FD801B022809D838688007F7D50EE038
:10119000C1F800A0FFF798FD064605E081E0FFF7E3
:1011A00093FD801B02287CD838688007F7D420780C
:1011B000400769D5DFF87CB14FF000080BF1400B18
:1011C000DBF80000C0000CD4DBF8001041F08051C7
:1011D000CBF80010DBF800004FF0010800F0805061
:1011E0000090574F3868C0050FD4386840F48070BD
:1011F0003860FFF769FD064604E0FFF765FD801BD8
:1012000002284ED83868C005F7D54A4FA068703715
:1012100001280FD00528386810D020F00100386070
:10122000386820F004003860A068B0B1FFF74CFDCA
:1012300006460EE0386840F00100F4E740F0040094
:101240003860F7E7FFF740FD811B41F288308142AB
:1012500065D838688007F5D50DE0FFF735FD0646FF
:1012600006E0FFF731FD811B41F28830814256D8FC
:1012700038688007F5D4B8F1000F05D0DBF800100E
:1012800021F08051CBF80010A069C8B3294908317A
:101290000968C1F38101022949D00228504607D0CC
:1012A00000E03CE0C9F86000FFF70EFD044639E0BD
:1012B0004F46C9F86000FFF707FD064604E0FFF758
:1012C00003FD801B02282AD828688001F7D4D4E9BE
:1012D00007010843A16A1B4A490802EB0141626AFF
:1012E00041EA8211084394F82C1040EA0161114848
:1012F000001D016001203866FFF7E6FC044605E0AA
:1013000013E0FFF7E1FC001B022808D828688001E1
:10131000F7D50AE0FFF7D8FC001B022802D903200A
:10132000BDE8F88F28688001F4D40020F8E7012098
:10133000F6E700000038024000004742800E4742B6
:10134000007000400000FFFF70B515460E46040017
:1013500003D094F8490010B107E0012070BD0020CF
:1013600084F84800204600F01BF804F108012068CA
:10137000FFF766FB3146A2682068FFF78BFBD4E9D4
:1013800001022946236BFFF73BFBA168206850F858
:10139000212042F0010240F82120002070BD000011
:1013A0000349884202D1084602F0F2BC70470000AF
:1013B000E88100207047704710B5040003D094F80E
:1013C0003D0010B107E0012010BD002084F83C0072
:1013D000204600F00CF8022084F83D00211D206812
:1013E00000F074FB012084F83D00002010BD704720
:1013F0000168CA6842F00102CA600068816801F0B1
:101400000701062903D0016841F0010101600020B5
:101410007047704770B50446006801694FF00005D9
:10142000C943890715D4C168C943890711D4E91E86
:10143000016101202077206880698007204602D062
:10144000FFF7E7FF04E000F098F8204600F096F878
:10145000257720680169C943490717D4C168C94382
:10146000490713D46FF0040101610220207720683E
:10147000806910F4407F204602D0FFF7CAFF04E0E5
:1014800000F07BF8204600F079F8257720680169A4
:10149000C943090716D4C168C943090712D46FF0BC
:1014A00008010161042020772068C0698007204678
:1014B00002D0FFF7AEFF04E000F05FF8204600F036
:1014C0005DF8257720680169C943C90617D4C1684A
:1014D000C943C90613D46FF01001016108202077B9
:1014E0002068C06910F4407F204602D0FFF791FFCA
:1014F00004E000F042F8204600F040F8257720682C
:101500000169C943C90708D1C168C943C90704D1E2
:10151000891E0161204600F033F820680169C94343
:10152000090609D4C168C943090605D46FF08001D2
:1015300001612046FFF73EFF20680169C943490663
:1015400009D4C168C943490605D46FF0400101615F
:10155000204600F01FF820680169C94389060BD4B2
:10156000C168C943890607D46FF020010161204694
:10157000BDE87040FFF71FBF70BD704770470000A7
:1015800000680349884201D1FFF7A4BB70470000FF
:1015900000200040704700BFFEE7F0B50A68032452
:1015A00092FAA2F2B2FA82F34FF00F0E70E0012528
:1015B0009D402A406BD04D68066892FAA2F7B7FAB0
:1015C00087F74FEA470C04FA0CF7BE4392FAA2F7EA
:1015D000B7FA87F77F00BD402E4306604D68012DA6
:1015E00001D0022D12D18D68866892FAA2F7B7FA5F
:1015F00087F74FEA470C04FA0CF7BE4392FAA2F7BA
:10160000B7FA87F77F00BD402E4386600D69C66834
:1016100092FAA2F7B7FA87F77F0004FA07FC92FA6A
:10162000A2F7B7FA87F77F0026EA0C06BD402E43E3
:10163000C6604D68022D2AD192FAA2F5B5FA85F559
:10164000082D4D6911D2066A92FAA2F7B7FA87F708
:10165000BF000EFA07F792FAA2F2B2FA82F29200F3
:10166000BE4395402E43066211E0466A120A92FA82
:10167000A2F7B7FA87F7BF000EFA07F792FAA2F2BD
:10168000B2FA82F29200BE4395402E4346625B1C42
:101690000A6832FA03F58AD14A68012A01D0022A7F
:1016A00006D10A68C968436893434A4313434360B9
:1016B0000020F0BD10B5044600F08EF9206000F067
:1016C00061F9606000F06CF9A060606800F076F984
:1016D000E06010BD7FB50446C0680D460126C0F32A
:1016E0004030C0BBE9686868AA69084329691143AA
:1016F0000843E16849F20C6291430843E060A8683E
:10170000216921F44051014321616869616921F433
:101710004071014361616846FFF7CCFF0F48844286
:1017200008D00F4884420DD00E4884420AD00E489B
:10173000844201D1039906E00C48844202D00C484F
:10174000844208D1029931B12B6823B1002620468A
:10175000AA6900F00FF804B0304670BD00100140D7
:10176000004400400048004000140140004C00408C
:1017700000500040F0B56424322501EBC10606EBB1
:101780000111B2F5004F2AD09A00B1FBF2F6B6FB78
:10179000F4F6B1FBF2F36FF018077E4303EB860318
:1017A000B1FBF2F605EB0313B3FBF4F3B6FBF4F66F
:1017B00003F0F00303EB0613B1FBF2F6B1FBF2F119
:1017C000B1FBF4F1794306EB810105EB0111B1FBAB
:1017D000F4F101F00F01194489B28160F0BD5A00A3
:1017E000B1FBF2F3B3FBF4F31E01B1FBF2F3B3FB75
:1017F000F4F3B1FBF2F76FF0180C03FB0CF307EBFB
:10180000830305EBC303B3FBF4F303F0F80306EB28
:101810004303B1FBF2F6B1FBF2F1B1FBF4F101FBD2
:101820000CF106EB810105EBC101B1FBF4F101F014
:101830000701D0E700B587B01C2206496846FEF7CD
:1018400086FE0021684603F036F80349086007B0B9
:1018500000BD0000086000080000002070B586B0E0
:1018600014216846FEF7C7FE3C480024016841F099
:1018700010010160016801F010010591016841F05B
:1018800004010160016801F004010591016841F063
:1018900020010160016801F020010591016841F01B
:1018A00080010160016801F080010591016841F04B
:1018B00001010160016801F001010591016841F039
:1018C00002010160016801F002010591016841F027
:1018D00040010160016801F040010591016841F09B
:1018E0000801016000684FF6FF7600F008000096DE
:1018F00005900325CDE9015469461948FFF7FEF824
:101900000096CDE9015469461648FFF7F7F80096AE
:10191000CDE9015469461448FFF7F0F849F6FF7025
:10192000CDE90005694602941048FFF7E7F80096F4
:10193000CDE9015469460E48FFF7E0F80096CDE97D
:10194000015469460B48FFF7D9F80096CDE90154D8
:1019500069460948FFF7D2F806B070BD303802403A
:101960000010024000080240001402400000024043
:101970000004024000180240000C024000BFFEE7D5
:101980007047000004490968044A01F0F0010909A0
:10199000515CC840704700000838024024600008CD
:1019A00004490968044A01F4E05102EB91210978E5
:1019B000C84070470838024034600008044909688C
:1019C000044A01F4604102EB51310978C840704784
:1019D00008380240346000080748006810F00C0125
:1019E000064807D0042904D0082903D1082000F0B4
:1019F00009B8034870470000083802400024F4008A
:101A000000127A0010B5104B04460020196811F43A
:101A100080020E4903D0B2F5800F00D14910082C86
:101A200011D1186800F03F00B1FBF0F01968C1F364
:101A3000881148431968012201F4403102EB114139
:101A40004900B0FBF1F010BD043802400024F4005E
:101A5000012002F024FFFBE710B504F0FBF9012898
:101A600001D004F087F910BD1048016841F47001FD
:101A700001600F48016841F0010101600C4A00213A
:101A80000832116002680B4B1A400260031D0A4ABB
:101A90001A60026822F48022026005480C3001605E
:101AA00002495806803908607047000088ED00E060
:101AB00000380240FFFFF6FE1030002410B5024847
:101AC000FFF7A8FC10BD000048030020F0B5026835
:101AD000254D264E264FDFF89CC0274B4FF0804EF9
:101AE000A84209D0704507D0B04205D0B84203D013
:101AF000604501D0984203D122F070044A68224325
:101B0000A8421BD0704519D0B04217D0B84215D0AA
:101B1000604513D0984211D0184CA0420ED0184CFA
:101B2000A0420BD0174CA04208D0174CA04205D0C1
:101B3000164CA04202D0164CA04203D122F44074AD
:101B4000CA6822434C6922F08002224302608A68FC
:101B5000C2620A688262A84201D0984201D1096932
:101B6000016301214161F0BD00000140000400401B
:101B700000080040000C004000040140004001400B
:101B8000004401400048014000180040001C004093
:101B90000020004002484068C1B2024800F07ABF0D
:101BA000001001407481002000BFFEE710B5044919
:101BB000FEF733FC08B1002010BD032010BD00006B
:101BC0009C60000810B50C4609A1FEF726FC68B120
:101BD0002046616C02F020FC6068C16841F0200181
:101BE000C1600120A0730020207310BD032010BD30
:101BF0002C382C312C302C300D0A0D0A4F4B0D0A8D
:101C00000000000000B5002287B011462520FFF734
:101C1000E7F82520FFF7D6F81C2209496846FEF7A9
:101C200096FC0021684602F046FE0649C861002085
:101C300080F31188044801F0EDF907B000BD000001
:101C4000646000087C0000207481002000B587B02B
:101C50000C4800F056FE0C4800F053FE0A4800F015
:101C60004EFE1C2209496846FEF771FC00216846B9
:101C700002F021FE06490860002080F3118807B0B9
:101C800000BD0000D4000020DC00002080600008BF
:101C90009C0000200221014802F01EBBEC00002045
:101CA0000149024802F0B8BB80841E00E400002015
:101CB0002DE9FF4F81B00446DDE90F6503989B468F
:101CC0008A46A0EB5608DDF8389000951FFA88F197
:101CD00033465A465046A047AAEB5607B8B24B4681
:101CE000324600950399A04708EB090081B23346BC
:101CF0005A4650460095A04707EB0B0080B24B4672
:101D0000324600950399A04705B0BDE8F08F00204A
:101D10007047000010B50C460549FEF77EFB18B170
:101D20000120A074002010BD0020A074032010BD6D
:101D30009C60000810B50449FEF76FFB08B1002055
:101D400010BD032010BD00009C60000810B50C46BB
:101D50000449FEF762FB18B10120E073002010BDBA
:101D6000032010BD9C6000081CB50C460499CDE909
:101D70000031134601462246014801F0A3FF1CBD75
:101D8000E88100202DE9FF4F81B08A46DDF838B0A8
:101D90008146202B21D31248002500EB03174FF07A
:101DA0008008A7F50077039800244619795D28FA82
:101DB00004F0014209D00AEB04000123B1B280B261
:101DC0001A46CC46CDF800B0E047641CE4B2082CBB
:101DD000ECD36D1CEDB2102DE5D305B0BDE8F08F4E
:101DE000C061000810B504460649FEF716FB20B98D
:101DF00005A12046FEF711FB08B1002010BD03200D
:101E000010BD00009C6000083000000010B50449BF
:101E1000FEF703FB08B1002010BD032010BD000039
:101E20009C60000870B5214CA18839B1204D012972
:101E300009D0022927D0032923D130E003211D48EE
:101E400000F00EFF1AE01CA1284601F0C5F91D495B
:101E5000284601F012FA1CA1284601F0BDF91949E3
:101E60002846103101F009FA11482C3802F037F9F0
:101E7000144A144910320F4801F050F9A088401C50
:101E8000A080002070BD13A1284601F0F6F9084893
:101E90002C3802F024F9074800F09AFEEEE70548D6
:101EA000007C0028EED0012070BD00007C000020E6
:101EB000D446002074810020776966694E616D65A3
:101EC0003A2000003C600008776966695077643A00
:101ED00020000000676574207769666920697020BA
:101EE0002E2E2E0070B5274C274B45216089401CB3
:101EF00080B2608119724E2159724421997263280F
:101F000003D96421B0FBF1F100E0002130311973F5
:101F10000A21092806D9B0FBF1F2B2FBF1F501FB69
:101F2000152200E0002230325A73B0FBF1F201FBBF
:101F3000120030309873A0890025401C80B2A08127
:101F4000032800D1A581FEF7BFFE2169401A16289B
:101F5000F9D30D49628801F50F5000F041FFFEF7FB
:101F6000B3FE206109A10D4801F036F90A220B48A1
:101F7000616901F09AF96580658101206561607091
:101F800070BD00007C000020B45D00206A706567B1
:101F900044617461546F74616C3A2000E400002065
:101FA0000320704770B504461F480D461AA1064627
:101FB00001F012F90A222946304601F01AF91BA154
:101FC000304601F05AF92146304601F056F91648DC
:101FD0002C3802F084F816A12046FEF71EFA0021E4
:101FE000002817D0144B801D03E05A54491C89B2B5
:101FF000401C02782C2AF8D10F4B0021203302E03C
:102000005A54491C89B210F8012F002AF8D10B4903
:102010000120087070BD00004573704369705265FF
:102020006365697665280000D4460020293A2000BF
:102030002B574946493A0000745D00207C0000207F
:1020400000B585B00020019001200290FF20009093
:1020500069460248FEF752FD05B000BD0008024087
:1020600070B54FF4B8611F48FEF7C5FA1EA11D48B0
:10207000FEF7E5F91B4930202C2248718871CA719E
:10208000087248728872CA7208734873184C887351
:10209000CA73A0890A22092803D9B0FBF2F33033AE
:1020A0004B71B0FBF2F302FB130030308871608992
:1020B000632808D96423B0FBF3F530350D72B0FB0B
:1020C000F3F503FB1500092803D9B0FBF2F3303315
:1020D0004B72B0FBF2F302FB130030308872102019
:1020E000608070BDB45D00204A5045473A00000052
:1020F0007C00002070B50446104A0821104801F009
:10210000C8F900210D48F822FC234FF4206530F86F
:10211000116002EA162604F8016B30F8116003EA38
:10212000D60604F8016B10F81160491CF60089B25C
:1021300004F8016BA942EAD370BD00007447002087
:102140001C47002030B593B030216846FEF753FAA3
:1021500014210CA8FEF74FFA19480025016841F038
:1021600080510160006800F08050119015480168AE
:1021700041F4804101600068022400F48040119025
:1021800001200090000401908001CDE9064008AADA
:102190000420A82182E813000B906846FEF74AFF4E
:1021A0000CA90F2081E831004FF4A0500F90E002FD
:1021B000109005210CA8FEF745FE13B030BD0000BD
:1021C000403802400070004070B505460C480C468F
:1021D0000068FEF758F9284400216FF02F03801C97
:1021E00006E001EB810103EB4101114489B2401C7F
:1021F00002783A2AF5D1A268401C9047002070BDB1
:102200004461000870B5324D324CE98821B1012992
:102210000FD0022959D12DE02FA1204601F02DF831
:102220002C482C3801F05BFF0121354800F056FFA7
:102230001CE034A1204600F0CFFF31492046153183
:1022400001F01BF831A1204600F0C6FF42F604164B
:102250000A223146204601F01CF81E482C3801F0B5
:102260003EFF32460121264800F0D0FCE888401CA1
:10227000E8802AE02878E8B128A1204600F0ACFFE9
:102280002C49204600F0A8FF2BA1204600F0A4FF17
:1022900028492046203100F0F0FF0E482C3801F08C
:1022A0001EFF244A23492032154800F057FC002025
:1022B00028700AE0FEF708FD1149896B401AB0F555
:1022C0007A6F02D90E4800F083FC002070BD000038
:1022D0007C000020D446002073746174696F6E2006
:1022E0006970206E6F742076616C69642C20776150
:1022F000697420666F7220737461696F6E000000EC
:1023000074810020415049503A00000063697053C5
:1023100065727665506F72743A2000007374617450
:10232000696F6E20636F6E6E65637420746F3A2000
:1023300000000000745D00202C0000000020887464
:10234000704700007FB53A4C00253A4822893A4947
:10235000072A5FD2DFE802F004080D1220323900AC
:10236000354800F0B7FC25E00021334800F0B6FE08
:1023700020E00121304800F0D1FB1BE02FA100F04C
:102380007CFF2C482C3801F0AAFE41F6A472354996
:10239000294800F0CDFC0DE0C97C032901D011B122
:1023A00038E0258136E030A100F067FF21482C3865
:1023B00001F095FE2089401C20812BE01E4800F092
:1023C000A3FCFEF781FCA061F4E7897C29B3FEF74A
:1023D0007BFCA169401A64281CD96581FEF774FC56
:1023E000A061274801F094F84FF4A074F022214630
:1023F000234801F0D1F8234803900322F0230094EE
:10240000CDE90132012300221F49204802F0A4FC3B
:10241000FFF768FD04B0002070BD1DA100F02DFF86
:1024200004482C3801F05BFE034800F035FCB8E7A7
:102430007C000020D44600207481002073746174F5
:10244000696F6E2069702076616C69642C207472EB
:102450007920746F20636F6E6E656374207365728C
:102460007665720055600008636F6E6E6563742058
:10247000746F20736572766572206F6B00000000C8
:102480001C47002074630020F5200008292700085D
:1024900073657276657220646973636F6E6E6563CF
:1024A0007465642C207265636F6E6E6563740000E2
:1024B000044908B50A6802430A60096801400091AE
:1024C00008BD00003038024010B50C460449FDF745
:1024D000A4FF18B101202073002010BD032010BDFF
:1024E0009C60000870B5374D35480024A860284628
:1024F00000F02CFD384834A1064600F0BEFE3648F8
:102500002C3801F0ECFD284600F05FFD142003F0AC
:10251000CFFA284600F076FB41F2707003F0C8FA5B
:10252000284600F0C9FB2DA1304600F0A6FE2A483F
:102530002C3801F0D4FD05E00A2003F0B9FA214857
:1025400000F052FC1F4800F035FD10B9E87C02286D
:10255000F2D1287BB8B125A1304600F08EFE1E488E
:102560002C3801F0BCFD0A2003F0A2FA154800F057
:102570003BFCE97C022908D0A9B10329F3D10A2048
:1025800003F096FAEFE71EA100E023A1304600F029
:1025900074FE11482C3801F0A2FD2848C069BDE83E
:1025A000704002F0B2B924B1687C30B1FFF7CAFEC6
:1025B000D9E7FFF737FC0446D5E7FFF723FED2E75C
:1025C000A51F000874810020657370207265736513
:1025D00074202E2E2E000000D4460020657370203B
:1025E000726573657420646F6E650000657370209A
:1025F000696E69742073756363657373000000000E
:1026000065737020696E6974206661696C642C2042
:1026100074696D656F757400657370206F70657295
:102620006174696F6E2074696D656F75742C2072AA
:102630006573657420657370000000007C000020E5
:102640004FF4FA74064800F058F9204602F027F9D2
:10265000034800F054F9204602F021F9F2E70000A7
:10266000D40000202DE9F0410C4607461C49FDF737
:10267000D4FE002832D01BA13846FDF7CEFE05005F
:102680004FF001060CD01BA1FDF7C7FE40B1421B65
:10269000267405F10D0104F115000D3AFDF712FF46
:1026A00015A13846FDF7B9FE050014D016A1FDF7B7
:1026B000B4FE10B1002060740DE00EA12846FDF7B5
:1026C000ACFE40B1421B667405F10E0104F1250019
:1026D0000E3AFDF7F7FE0020BDE8F0810320FBE78E
:1026E0009C6000082B43494653523A415049502CB4
:1026F00022000000220D0A002B43494653523A5350
:10270000544149502C220000302E302E302E300003
:1027100010B50449FDF781FE08B1002010BD03206B
:1027200010BD00009C6000082DE9F047214D1446C3
:102730008946688808B9FFF793FC68884FF4B86742
:1027400002191D49BA4207D2084422464946FDF7FC
:10275000B9FE6888204427E0C0F5B86296B2884682
:10276000084432464946FDF7ADFEFEF7ADFA296949
:10277000401A1628F9D310493A4601F50F5000F0D7
:102780002FFBFEF7A1FA28616889401C6881FFF7DA
:1027900067FC6A88A71B08EB020009EB06013A46B2
:1027A000FDF790FE68883844688068692044686155
:1027B000BDE8F0877C000020B45D00200021C180CE
:1027C00059420322038102EB41014181AFF30080B2
:1027D00030B5B0F90610B0F90820914217DC8181BC
:1027E000C281B0F90A30002B05DA062202EB810221
:1027F0001A44428107E08C1A0A2505EB840423441D
:102800004381521E0281491CC1800C3030BD002022
:1028100030BD4168024608200B78002B08D011F823
:10282000013F002B04D013890830184480B2F6E72A
:1028300070472DE9F8431F4616468846054644680A
:102840000BE0A88900903A4631464046FFF79AFAD5
:1028500028890836304486B2641C2378002BF0D1D6
:10286000BDE8F88330B5044C039DC0E90041028106
:102870004381858130BD0000DC6A000830B5DDE9A8
:102880000345816002804380C4600582002004E02B
:1028900004EB00118881401C80B2A842F8D330BDFF
:1028A000F8B50E460546002409E0E868314600EB1D
:1028B00004100068FDF7C6FE28B1641CA4B2288A83
:1028C000A042F2D8F8BDE8680A2101EB0411405A91
:1028D00000900021AE686B882A880846B047E868F7
:1028E0000C2101EB0411415AA98000EB0410A968E6
:1028F000BDE8F84000F056B8704700F017B800F097
:102900000BB810B500220446114600F015F8204619
:10291000BDE8104000F00AB801684A6980880243A7
:102920004A61704781880068FEF7C8B901684A6942
:10293000808882434A61704700B585B0012341B168
:10294000012904D0022904D0032903D101E0039313
:1029500000E0039112B1012A05D101E0019302E0E8
:102960001121CDE901138188009100686946FEF7C5
:10297000C5F805B000BD00B585B011B1012904D17D
:1029800001E0012100E002210291818800910021F3
:10299000019100686946FEF7B1F805B000BD01601D
:1029A000828070472DE9F0410E460546002400273D
:1029B0000DE0686850F82700017D31B18189A1429E
:1029C00003D101684A68314690477F1CBFB229890C
:1029D000B942EED80123002222E06F6857F82200A6
:1029E000B0F80CC0A44519D9007DB8B157F8220041
:1029F000A446002384890EE057F8220090F814E0E2
:102A0000BEF1000F05D08089A04202D2604500D9F6
:102A10000446521C92B29142EED803E0521C92B28C
:102A20009142DAD8002BC2D0BDE8F08110B5029CEB
:102A3000C0E900120381448110BD3EB50446408ABE
:102A400000900D46238BE28A61892089A847208B5C
:102A5000228AE1898DE80700E38A62892189284674
:102A6000FFF726F93EBD0000FFB509AE4FF0010C9F
:102A700096E8B0004FF6FF760097CDE901C60396C1
:102A800000F03EFF02490160C482058304B0F0BD3E
:102A9000E86A000810B50446B0F84200B4F84020D7
:102AA000521E904206DAE26B1154B4F84200401C08
:102AB000A4F8420000206073A06C8047E06410BD61
:102AC00070B50446806C0D468047A0630120E07419
:102AD000256670BD70B50C46054600F071F80028FB
:102AE00013D00A480168284600F066F90A222146F8
:102AF000284600F091FB06A1284600F0BEFB2846C0
:102B0000BDE870401421FFF7DBBF70BDB460000862
:102B10002C382C312C302C300000000070B50D46C4
:102B2000044600F04DF8002811D0094801682046FD
:102B300000F042F90DB107A100E007A1204600F026
:102B40009CFB2046BDE870402821FFF7B9BF70BD4F
:102B500034610008310000003000000070B51546F7
:102B60000E46044600F02CF8002821D011480168D8
:102B7000204600F021F910A1204600F02DFB31463F
:102B8000204600F029FB0DA1204600F025FB294638
:102B9000204600F021FB08A1204600F06EFB4FF418
:102BA000FA60411020662046BDE87040FFF788BFFC
:102BB00070BD00001461000822000000222C2200D9
:102BC000017B09B1C07C08B100207047012070472B
:102BD00010B50446FFF7F4FF00280ED007A12046E9
:102BE00000F0FAFA06480168204600F046FB20464D
:102BF000BDE810401421FFF763BF10BD41542B0006
:102C0000E46000085830FFF787BE000070B5144636
:102C10000E460546FFF7D4FF00281AD00D4801687C
:102C2000284600F0C9F80EB10BA100E000212846AB
:102C300000F0D2FA09A1284600F0CEFA0A22214675
:102C4000284600F026FB2846BDE870401421FFF717
:102C500037BF70BD04610008310000002C00000087
:102C600070B50C460546FFF7ABFF002810D00948A9
:102C70000168284600F0A0F80A222146284600F004
:102C800008FB2C752846BDE870402821FFF718BFC7
:102C900070BD0000C460000810B50246FFF790FF49
:102CA000002805D0BDE8104002A1104600F069B927
:102CB00010BD00002B2B2B0010B50446B0F84210BD
:102CC000C06BFDF776FC0020A4F842000120607381
:102CD00010BD000010B50446FFF772FF00280FD0AA
:102CE00008480168204600F067F80A2200212046C3
:102CF00000F0CFFA2046BDE810401421FFF7E0BEF7
:102D000010BD00000461000810B50246FFF758FF2F
:102D1000002805D0BDE8104002A1104600F031B9EE
:102D200010BD000041542B43495053454E44000010
:102D300070B514460D460646FFF742FF00282FD017
:102D400018480168304600F037F817A1304600F007
:102D500043FA2946304600F03FFA15A1304600F00C
:102D60003BFA0A222146304600F043FA11A13046D0
:102D700000F032FA0A2240F24C41304600F039FAB3
:102D80000CA1304600F028FA0A220021304600F05B
:102D900080FA3046BDE870404FF4FA61FFF790BE0C
:102DA00070BD00002461000822554450222C2200EE
:102DB000222C00002C00000070B50C46054606A130
:102DC00000F00AFA2146284600F006FA2846BDE837
:102DD000704002A100F000BA41542B003D000000F9
:102DE00092B201F07DBB00002DE9F0410446806CF9
:102DF00080478046607BE0BBE16CA8EB0100216E60
:102E0000884245D94849494800F037FA4748E16BBC
:102E100000F0E2F94649454800F02FFA454F0025F9
:102E200057F825000168E06BFDF7F7FA060011D0AE
:102E300057F825000068FDF726FB305C3F2857F85F
:102E4000250001D0426801E082681AB1214630466F
:102E50009047E0746D1CADB20B2DE1D3354E0025CB
:102E6000083E56F825000168E06BFDF7D6FA30B150
:102E700000E00DE056F825104A68214690476D1C89
:102E8000ADB2022DEDD3142020662046FFF714FFCB
:102E9000E07C012807D1A16BA8EB0100216D8842DD
:102EA00001D90220E074207B40B1A07B002839D1F9
:102EB0002046616CBDE8F041FFF70CBE606D00215B
:102EC000A0F57F42FF3A01D0A27B2AB1616520467E
:102ED000616C00F065F81DE0A36BA8EB0302236EA4
:102EE0009A4217D9132815D2E17413A10F4800F0A4
:102EF00073F9154D606D0A2255F820100B4800F04B
:102F0000D4F9606D55F82010204600F049F8606D46
:102F1000401C60650C48B03801682046BDE8F041AF
:102F200000F02FB8BDE8F081686C0008E4000020D4
:102F3000106C0008A80000206E6F77207465737411
:102F400020626175643A00005461000810B50446BF
:102F5000002203215830FFF7EFFC204600F035F83F
:102F6000102104F11500FDF724FB102104F12500C8
:102F7000FDF71FFBB4F84010E06BBDE81040FDF713
:102F800018BB10B50446C07C002808D1204600F0CC
:102F900074F92046BDE810401421FFF791BD10BD23
:102FA00010B5044601F038FA6068C16841F02001AC
:102FB000C16010BD017B31B1817B21B1C07C022891
:102FC00001D0012070470020704710B504465830EA
:102FD000FFF7ACFC2046FFF76FFE102104F115004F
:102FE000FDF7E7FA102104F12500FDF7E2FA0020D1
:102FF000A4F84200E0644FF6FF716165A0631421FC
:1030000021662073E0746073A0732075207460746F
:1030100010BD000010B515A1174800F02EF917A13A
:10302000154800F0D9F80A220B21134800F031F9B5
:1030300017A1114800F0D0F80A220B210E4800F029
:1030400028F91AA10C4800F0C7F80A2202210A4800
:1030500000F01FF91AA1084800F0BEF80A22BDE8E6
:1030600010400221044800F014B90000657370415B
:103070007420696E666F3A00E4000020636C696535
:103080006E7420636D647320636F756E743A000014
:10309000636C69656E7420636D6473207265676923
:1030A0007374656420636F756E743A00736572762D
:1030B000657220636D647320636F756E743A0000EF
:1030C00073657276657220636D64732072656769DB
:1030D0007374656420636F756E743A0070B50D4645
:1030E0000446FFF76DFD002811D00948016820460D
:1030F000FFF762FE0DB107A100E007A1204600F036
:10310000BCF82046BDE870401421FFF7D9BC70BD63
:10311000F4600008310000003000000070B5144673
:103120000D460646FFF74CFD002823D012480168E3
:103130003046FFF741FE11A1304600F04DF8294618
:10314000304600F049F80DA1304600F045F80CA1DA
:10315000304600F041F82146304600F03DF809A124
:10316000304600F08AF83046BDE870404FF4FA610E
:10317000FFF7A6BC70BD0000D4600008220000006C
:103180002C220000222C352C33000000F0B505ACB9
:1031900094E8E0100F4C04604968C2634160A0F8F5
:1031A0004030C0E91156C0E9167C0021A0F8421059
:1031B000C1644FF6FF72426581634FF4FA520265B3
:1031C0001422026601734173C17481730175017425
:1031D0004174F0BDC06B000870B50C46054604E0B4
:1031E0002868826A28469047641C21780029F7D114
:1031F00070BD70B516460C00054605D528682D2112
:10320000826A284690476442286832462146C3684D
:103210002846BDE8704018472DE9F04115460F4695
:103220000646012400E06C43B7FBF5F0A042FAD259
:1032300011E0B7FBF4F0B0FBF5F105FB11000A2833
:1032400001DB573000E03030C1B23068826A30466E
:10325000904794FBF5F4AC42EBDAB7FBF5F005FBD5
:1032600010700A2801DB573000E03030C1B23068FE
:10327000826A3046BDE8F041104710B50446006848
:103280004268204690472068416A2046BDE81040C9
:10329000084710B5044600688368204698472068B0
:1032A000416A2046BDE81040084710B50446006852
:1032B000C368204698472068416A2046BDE8104010
:1032C0000847000001684A6800A110470D0A000085
:1032D0000149016070470000F86A000870B50446B3
:1032E00000680E4602682046904704F120052846F3
:1032F000FFF78FFA2189E28A6FF0070301EB520191
:10330000A1EB500082B2218B608903EB510108448C
:1033100083B22868314604682846A446BDE8704058
:1033200060470000FFB50DF12C0E0E469EE83200FE
:10333000DDE9097CCDE90214CDE9007C314601F0DC
:1033400051F80021012300911A4629462030FFF749
:1033500089FA034940F8201D1031016204B0F0BD24
:103360002C6B00080A1D082A06D8202202EB8101D6
:10337000CAB29C2100F0B3B9704710B504460629C3
:1033800054D2DFE801F00306222E3A47FF22132130
:103390000BE0FD221321204600F0A1F95A22012161
:1033A000204600F09CF95C2232E0204600F097F9BC
:1033B00065220E21204600F092F900222D212046A0
:1033C00000F08DF900222E212BE0FD221321204652
:1033D00000F085F958220121204600F080F9602292
:1033E00016E0FD221321204600F079F98422012104
:1033F000204600F074F94C220AE0FD2213212046F9
:1034000000F06DF996220121204600F068F9402273
:103410000221CAE7FF221321204600F060F9E522CD
:103420000E212046BDE8104000F059B910BD70B51E
:1034300005460822081D082816D8002901DB0624A5
:1034400004E00E24C94301E01032D2B2491E49B251
:10345000FAD29B21284600F042F922462846BDE8D0
:103460007040AB2100F03BB970BD70B50546081D3A
:1034700008280DD80C014034E2B2A721284600F0FC
:103480002EF9E2B22846BDE87040A82100F027B925
:1034900070BDF0B5B0F856308B4200D219465B1AB9
:1034A000A0F85630002530E0002328E0046C66695F
:1034B000476CBE436661846C246990F84C6034406C
:1034C0004FF6FF7606EA04241480046C6669476CA4
:1034D0003E436661046C6669476CBE436661846CFA
:1034E0002469B0F84C6034401688344322F8024B0B
:1034F000046C6669476C3E4366615B1C9BB2B0F826
:1035000054409C42D2D86D1CADB28D42CCD3F0BD9C
:1035100070B5044600F138052846FFF703FA002885
:10352000FAD02846FFF7FEF90028FAD104F120006E
:103530000646FFF7FBF9206C4169626C91434161DB
:10354000206C4169626C114341613046FFF7E4F938
:1035500004F118000446FFF7DFF92846FFF7E2F907
:103560000028FAD02046BDE87040FFF7DFB910B55B
:10357000044600290FD10622A62100F0B0F88022CF
:103580006021204600F0ABF820468022BDE81040C4
:10359000612100F0A4B810BD70B5A0F85410044625
:1035A000A0F8562028300546FFF7C0F9206C416985
:1035B000626C91434161206C4169626C11434161CD
:1035C000206C4169626C914341612846FFF7A4F980
:1035D000206C4169626C1143416170BD2DE9FE436D
:1035E0000546001D00F09EFCB5F84400296C82B22F
:1035F00001A8FFF7D4F90022032101A8FFF79CF9E5
:1036000005F11800002203210746FFF795F905F19F
:103610002000002203210646FFF78EF905F128005D
:10362000002203210446FFF787F905F1300000224C
:1036300003218046FFF780F9002105F13800FFF7EC
:103640009AF9286C41696A6C114341613846FFF769
:1036500063F93046FFF760F92046FFF75DF9404611
:10366000FFF75AF96A460A21284600F02DF800288B
:103670000DD09DF80000772808D16A460B21284616
:1036800000F022F89DF80000212802D00020BDE8BB
:10369000FE8380221221284600F021F8094E0024E2
:1036A00006EB440016F814104278284600F017F88C
:1036B000641CA4B2412CF3D34046FFF737F9012034
:1036C000E5E70000B067000838B50C46012100911D
:1036D000134610F8041B224600F0E1FB38BD07B585
:1036E00082B00A460121009110F8041B04AB00F0DF
:1036F00043FC05B000BD2DE9FC4714460D4682464B
:10370000002B7ED0C5F5A07000EBD070C0F34F0742
:10371000C4F1F00000EBD070C0F34F064622122136
:103720005046FFF7DCFF3F2217215046FFF7D7FF37
:10373000502218215046FFF7D2FF0322192150468C
:10374000FFF7CDFF78221A215046FFF7C8FF00226D
:1037500032215046FFF7C3FF502229215046FFF780
:10376000BEFF78222C215046FFF7B9FF6A46172189
:103770005046FFF7A9FF9DF80000172100EB9700C6
:10378000C2B28DF804205046FFF7A9FFC5F38702A7
:10379000914618215046FFF7A2FF6A46192150466C
:1037A000FFF792FF9DF80000192100EB5600C2B20E
:1037B0008DF804205046FFF792FFC4F3470290466D
:1037C0001A215046FFF78BFF6A4632215046FFF719
:1037D0007BFFF007400E07F0030140EA011004F000
:1037E000010440EA840205F003059DF800002A4325
:1037F00002438DF8042032215046FFF770FF4A46FD
:1038000000E01AE029215046FFF769FF42462C21CB
:103810005046FFF764FF01AA2A215046FFF754FFE4
:103820009DF800002A21054345EA84028DF8042012
:103830005046FFF754FFBDE8FC87C5F5207000EB4C
:10384000D070C0F34F07C4F5F07000EBD070C0F338
:103850004F06062212215046FFF741FF232217216F
:103860005046FFF73CFFA02218215046FFF737FFD4
:10387000072219215046FFF732FFF0221A21504645
:10388000FFF72DFF002232215046FFF728FFA0222C
:1038900029215046FFF723FFF02263E70FB41422DB
:1038A0002DE9F05F0446DDE91767DDE91589DDE9FB
:1038B00011AB1C9D00F8041B0CA9FCF748FEC4E9E1
:1038C00006ABDDE913012034A4E8030364E80C67C8
:1038D000DDE91901C4E90E011B98C4E910051D9822
:1038E000A0641E98E0641F9820650020A4F854008E
:1038F000A4F856002046BDE8F01F5DF814FB7047A1
:10390000F0B505AC94E8E010064CC0E90041028136
:1039100043818581C6810782A0F812C0012101750B
:10392000F0BD0000486B000880F878107047000078
:1039300030B50446503087B0002203210546FEF71B
:10394000FBFF2846FEF7E8FF1C216846FCF753FE04
:103950004FF020402060C6486060B4F8601000203E
:10396000022201290AD002290CD003296AD0042995
:103970007ED10621A1604FF0D84106E04FF0C04152
:10398000A06002E04FF0C841A260616794F8623025
:1039900002FA03F319432167E0601021C4E904012E
:1039A000A061E06109022062C4E90901E0622063CC
:1039B0006063A06303216064009101910291CDE9ED
:1039C0000312CDE90520002269462046FDF7BCFC24
:1039D000A8A1AE48FFF700FC616F1022AB486C3421
:1039E000FFF71AFCAAA1A948FFF7F6FB1022A74887
:1039F0006168FFF711FCA548FFF764FCA5A1A34887
:103A0000FFF7EAFBA168D3204FF6FF7208806068D9
:103A10000188218001882180018802EA0122228018
:103A200001889A48114321801022FFF732FC34F8B4
:103A30006C09A0F51341413909D09AA19348FFF7C9
:103A40001CFCFEE70421A1604FF0D0419DE7616FAF
:103A5000CF200880216F00200880216FC1200880BE
:103A6000216F30200880616FED200880642000E025
:103A7000FBE0216F0880216F03200880216F122056
:103A80000880216F81200880616FE8200880216F05
:103A900085200880216F10200880216F7A200880FF
:103AA000616FCB200880216F39200880216F2C2086
:103AB0000880216F00200880216F34200880216F4A
:103AC00002200880616FF7200880216F2020088085
:103AD000616FEA200880216F00200880216F088034
:103AE000616FC0200880216F1B200880616FC1209A
:103AF0000880216F01200880616FC5200880216F38
:103B000030200880216F0880616FC7200880216FF6
:103B1000B7200880616F36200880216F4820088018
:103B2000616F3A200880216F55200880616FB120B5
:103B30000880216F00200880216F1A200880616FA3
:103B4000B6200880216F0A200880216FA2200880FB
:103B5000616FF2200880216F00200880616F2620AD
:103B60000880216F01200880616FE0200880216FAC
:103B70000F200880216F2A200880216F28200880CC
:103B8000216F08200880216F0E200880216F0820F7
:103B90000880216F54200880216FA9200880216FA0
:103BA00043200880216F0A200880216F0F200880A1
:103BB000216F00200880216F0880216F0880216F0D
:103BC0000880616FE1200880216F00200880216F4C
:103BD00015200880216F17200880216F072008809A
:103BE000216F11200880216F06200880216F2B2073
:103BF0000880216F56200880216F3C200880216FAB
:103C000005200880216F10200880216F0F20088078
:103C1000216F3F200880216F0880216F0F200880CE
:103C2000616F2B200880216F00200880216F0880A1
:103C3000216F01200880216F3F200880616F2A20BA
:103C40000880216F00200880216F0880216F088084
:103C5000216FEF200880616F1120088078211848BB
:103C600000F02CFB616F2920088007B030BD0000F8
:103C7000040100A066736D6320636D6420616E644F
:103C80002064617420616464723A2000E4000020C2
:103C90002000000072656164206C63642069643AEE
:103CA000203078006C6364206964206572726F72E2
:103CB0002C2073797374656D2073746F702E0000FF
:103CC000EC0000202DE9F043002BDDE907695DD011
:103CD000002E5BD0CC18641EA5B29419641E90F817
:103CE00078808C461746A4B2B8F1010F06D0B8F11F
:103CF000020F0AD0B8F1030F16D10EE0B0F86A1027
:103D00000C1BA7B2891A8CB20EE0B0F868707D1B4C
:103D10001FFA85FC791A8DB2F0E7B0F86820551BC0
:103D20001FFA85FC511A8DB2426F2A211180026F51
:103D30004FEA1C211180026F0CF0FF011180026F0D
:103D4000290A1180026FE9B21180426F2B21118084
:103D5000026F390A1180026FF9B21180026F210AD5
:103D60001180026FE1B21180426F2C21118000227C
:103D70000AE0002104E0056F491C89B2A5F8009013
:103D8000B142F8D3521C92B29A42F2D3BDE8F0830A
:103D90002DE9F04387B0044614216846FCF72BFC5C
:103DA00028480025016841F00101016000680226F1
:103DB00000F001000590B4F85C004FF00308CDE975
:103DC0000006CDE902580C27049754F8580F6946AD
:103DD000FCF794FE4FF68070CDE90006CDE902585D
:103DE000694604971848FCF789FE4CF23370CDE918
:103DF0000006DFF85890CDE9025869460497484616
:103E0000FCF77CFE2189012908D01148022909D03C
:103E100003290AD0042912D1811408E080200090DF
:103E2000484605E04FF4007101E04FF480610091D5
:103E3000CDE90165CDE903876946FCF75FFE07B070
:103E4000BDE8F0833838024000100240000C024008
:103E500000180240F0B50DF1140E50309EE8F0103D
:103E600036C020F8023B20F8026B20F8067B018860
:103E700020F8041C20F8027C20F86AC9F0BD70B557
:103E8000044608300546FEF751FD2046FEF744FD86
:103E9000206980472846BDE87040FEF73DBD2DE90A
:103EA000F0411D4617460E468046069C00F04FF82E
:103EB0007006010E404600F0DBF8404600F0A2F824
:103EC00000282BD03946404600F0D2F8404600F09A
:103ED00099F8002822D04046FFF7D1FF404600F075
:103EE00036F8012000EB4600C1B2404600F0C0F8B1
:103EF000404600F087F8002810D008E000F098F85D
:103F000005F8010B64B10121404600F061F8641E20
:103F1000A4B24046F2D2FFF7B2FF0120BDE8F08123
:103F20000021F1E770B5044601220221FEF704FDED
:103F300004F10800012202210546FEF7FDFC20469F
:103F4000FEF7F4FC2846BDE87040FEF7EFBC70B504
:103F5000044608300546FEF7DFFC2046FEF7DCFC91
:103F6000206980472846FEF7E1FC2069804720460B
:103F7000BDE87040FEF7DABC2DE9F0411D4616465B
:103F80000F468046069CFFF7E2FF7806010E40468A
:103F900000F06EF8404600F035F8002816D03146A3
:103FA000404600F065F8404605E02978404600F0BC
:103FB0005FF840466D1C00F025F8002806D0641E0E
:103FC000A4B2F2D24046FFF75AFF0120BDE8F081CB
:103FD00070B5044600F10805284611B1FEF7A6FCAD
:103FE00001E0FEF799FC206980472046FEF794FC2B
:103FF000206980472046FEF799FC2846BDE87040BE
:10400000FEF78ABC70B50446006980472046FEF77B
:1040100083FC04F10800FEF785FC08B1002500E0F0
:104020000125206980472046FEF780FC284670BDA8
:104030002DE9F04100240646254600F108073069C5
:1040400080473046FEF768FC6006040E3846FEF7EF
:1040500069FC08B144F00104306980473046FEF73E
:1040600065FC6D1CEDB2082DE9D32046BDE8F0815A
:104070002DE9F0410D460646002400F10807280608
:10408000384602D5FEF748FC01E0FEF74FFC680613
:10409000050E306980473046FEF73EFC30698047A8
:1040A0003046FEF743FC641CE4B2082CE7D33846E4
:1040B000BDE8F041FEF730BC30B5DDE9034580E8EE
:1040C0003E0030BD70B54FF48054DDE90456846085
:1040D000C0E90731C0E90562C0E9034570BD026867
:1040E000416B526810472DE9F84F04464163006860
:1040F0008A46026820469047A08CE18A0830B1FBCE
:10410000F0F0401E1FFA80F8E08C218B1030B1FBDC
:10411000F0F0401E1FFA80F9206A002107460A4687
:104120000D46B4F83CC021E07B5D0A2B05D0202B66
:1041300006D3521C92B2424502D9491C89B20022D0
:10414000494511D9491E89B200230AE00A2E05D03B
:10415000202E05D35B1C9BB2434501D9401C03E0D4
:10416000401C0678002EF1D16D1CADB2AC45DBD8F9
:10417000002687420ED0C11BACEB0101A1870021B4
:1041800005E0236A5A54491C00F8016B89B2027891
:10419000002AF6D1A08C256A2087E08C608722E077
:1041A0000A2825D020281DD3208FE18A0830884294
:1041B00005D92687608FE18C084410306087208DF8
:1041C00000906089618F2B78084482B22089218F0A
:1041D000084481B25046FDF7D5FD208FA18C0844DC
:1041E000083020876D1C28780028D9D1BDE8F88FC9
:1041F0002687608FE18C084410306087F2E710B5A5
:104200000023828F082908D0046AA154818F491C99
:1042100089B28187006A435410BD002AFCD0016A2C
:104220008B54818F491E818710BD0000FEB50C465E
:10423000DDE90AC6DDE908170C9D8DE882102146EC
:10424000FEF712FC002401231A4631461C3000946C
:10425000FEF708FB1030FFF73BF8064940F82C1D2D
:104260001831C1610C31C162058604874487848797
:10427000FEBD0000586B00080E4908B50B6800220F
:1042800043F010030B600B6803F0100300930B68FE
:1042900043F020030B600968074B01F020010091F7
:1042A0004168B1FBF3F10368491E99620068C2607E
:1042B00008BD00004038024040420F0030B50B46B8
:1042C00005464FF47A7403E02146284600F004F8CE
:1042D0005B1E9BB2F8D230BD4FF6FF72511A0268D6
:1042E000516202680921116001680A69D207FCD095
:1042F0000A6922F001020A6100680021016070472A
:104300002DE9FE43894604460189408B01448FB262
:10431000618901448EB2618A0091218B404201EB98
:1043200040018BB2E18A01EB400082B2314638464F
:10433000C847638B32B239B22948FEF73FFA4BE0E7
:10434000B5F90000002800DA404201B22980B5F931
:104350000200002800DA40426880628B4B00524223
:10436000B4F816C003EB420363444FEA400C0CEB75
:104370004202B4F818C04FF00108624492B2B4F897
:1043800012C08DE80411301A82B2781A81B29BB241
:104390004846FDF78DFCB5F802C0608B4FEA4C0132
:1043A0004042E28A01EB400111448BB229884A0065
:1043B00002EB4000228B1044628A80B2CDE90008F3
:1043C0000292701A82B2A7EB0C0081B24846FDF748
:1043D0006FFC0348FEF7FCF90500B1D1BDE8FE8390
:1043E000D88100202DE9FF410AAE4FF0010C96E87C
:1043F000B0014FF6FF76CDF80080CDE901C60396F7
:10440000FFF77EFA03490160C4820583478304B045
:10441000BDE8F081B06B0008F0B58FB00F460446E0
:104420001C216846FCF7E7F8182107A8FCF7E3F819
:1044300028496068401828490ED0B0F54C4F1AD171
:1044400026480E464FF4C065016841F01001016036
:10445000006800F010000AE020480C25001F0E46FE
:10446000016841F400310160006800F400300D90F3
:104470000120FEF71DF80220CDE90750032000259A
:10448000CDE909050720CDE90B5007A93046FDF716
:1044900084F8CDE900750C200295CDE9035005950F
:1044A00006956068C16821F40051C1606946606882
:1044B000FDF710F96068016921F4904101614169DB
:1044C00021F02A0141616068C16841F40051C16076
:1044D0000FB0F0BD00BCFFBF0000024044380240F6
:1044E00010B506E043681C682406FCD511F8014BA2
:1044F0005C60521E92B2F5D210BD4068026812068E
:10450000FCD5416070470000014AC0E900217047B6
:10451000C06B00082C38FFF772BE0907090E00288F
:1045200004DB00F1E02080F80014704700F00F0079
:1045300000F1E02080F8141D70470020FCF7D8B887
:1045400010EE100AC0F3C7517F391729A8BF704772
:10455000DFED140A002970EE200A0DDAF5EEC00A2C
:10456000F1EE10FA1ADD0028A8BF002016DAB0F12B
:10457000004F18BF0C4811E00C4ACA40104208BF57
:104580007047F5EEC00AF1EE10FA07DD002804DAF4
:104590004FF4000323FA01F10844904300EE100A9F
:1045A00070470000CAF24971000080BFFFFF7F0022
:1045B00010B588B010220D4906A8FEF7F0F90446A0
:1045C0000B4904A8FFF7A0FF0146D4E90002CDE99A
:1045D0000202084A0848CDE90002084A4FF4007375
:1045E00002F51850FEF7D2FD08B010BD00000240E1
:1045F00000100140C90C000800093D00745B002058
:104600002DE9F04FA5B0102102914AA00024CDE978
:1046100003402822A020CDE900024FF4827348A174
:104620004B48FEF77FFEF020CDE9010400904FF4E7
:1046300000764849CDE90316454800231A4646A1AD
:104640003030FFF7F3FD0F20009041480223454A28
:1046500045A17030FEF7EAF93D4800231A4644A10F
:1046600080300094FEF7E2F939489030FEF744F9C3
:10467000414CF200214623A8FEF791F98246E2144C
:10468000214621A8FEF78BF98346221521461FA853
:10469000FEF785F98046A5152A4638491DA8FEF77C
:1046A0007EF98146324621461BA8FEF778F9344F41
:1046B00002900122394619A8FEF771F90646022236
:1046C000394617A8FEF76BF92E49019171680091E0
:1046D000D0E9001212A83368FFF7EEFC2A49FF2246
:1046E0001191CDE90F42CDE90D45DAE90021CDE97F
:1046F0000B21DBE90021CDE90921D8E90021CDE931
:104700000721D9E90021CDE905210299D1E900214C
:10471000CDE9032100F108010EC98DE80E00D0E9B2
:1047200000230B482121A430FFF7B8F825B0BDE8DD
:10473000F08F000073686F772063616D65726100B0
:10474000627453686F7743616D65726100000000A9
:1047500078460020784400207461436F6E736F6C5C
:1047600065000000740000206D61696E00000000AB
:1047700063616D6572610000000802400000024044
:1047800000140240951C00088000006C10B58AB02F
:104790004FF480520F4907A8FEF701F904464FF481
:1047A00000420D4905A8FEF7FAF80DF1080C4FF488
:1047B000A073F02206218CE80E00D4E90012CDE9A6
:1047C0000012D0E9001204230448FFF743FB0AB0AB
:1047D00010BD00000014024000040240E8810020E7
:1047E0001FB54FF40052084902A8FEF7D8F84FF45D
:1047F000A072F021CDE90012D0E90023034904485A
:10480000FFF760FC1FBD00000008024000300140BF
:1048100064820020704700007FB50C4D0A4C4FF4B5
:10482000007229466846FEF7BAF8D0E90010C4E9DC
:10483000001008342A15294602A8FEF7B0F8D0E97E
:104840000010C4E900107FBDD40000200014024015
:1048500001490248FFF758BE00440040E400002030
:104860000248044A0249C0E900127047EC000020E7
:104870000010004000BD0105FCF734FAFDF762FCB2
:10488000FCF7ECFFFBF7B2FFFCF7D4FF00F00EF8EB
:10489000FEE701460020842900D0C81C704710B5EF
:1048A00000B9012001F004F9002010BD10B501F09D
:1048B0007BF9002010BD7FB50D4604464169B0F973
:1048C000080081B1A16971B1FFF7E3FFD4E90512D6
:1048D0008DE80700D4E900102B46226901F08DFA1B
:1048E000039004B070BDFFF7D4FF03A9CDE9000128
:1048F000208A2B4682B2D4E9001001F051FA012837
:1049000001D00020EDE70398EBE710B501F0F6F8D1
:10491000002010BD2DE9F041184E0F460446756980
:104920003068001D01F000F838B9306890F82C109C
:1049300001208840B1698143B161601C07D137B162
:104940003168BDE8F0410E48091D01F031B830680A
:104950002C44AC424460316805D2B068BDE8F041F7
:10496000091D01F00DB87068091D01F009F8306BE0
:10497000844200D23463BDE8F081000008000020CA
:10498000640400202DE9F041054601F01DF82E4E8B
:104990003069401C306130682C4F10B1F06940B371
:1049A0002DE035603069012829D1002404EB840012
:1049B00007EB800000F0D6FF641C072CF6D32348D9
:1049C0008C3000F0CFFF2148A03000F0CBFF1F4813
:1049D000B43000F0C7FF1D48C83000F0C3FF1B48CB
:1049E000DC3000F0BFFF19488C3070601430B060CC
:1049F00005E03068E96AC06A884200D83560F06A2C
:104A00000121401CF062E86AB26981401143B16142
:104A100000EB800007EB8000291D00F0C9FF00F0CB
:104A2000F3FFF06900280CD03068E96AC06A884258
:104A300007D207494FF080500860BFF34F8FBFF394
:104A40006F8FBDE8F081000008000020880300207F
:104A500004ED00E010B5044690F8510058B101286B
:104A60000CD002280FD0502080F31188BFF34F8F55
:104A7000BFF36F8FFEE7206B00F0DAFF2046BDE842
:104A8000104000F0D5BF10BD10484FF480414207E0
:104A900006D0C01D0D4920F00700411AC1F5804124
:104AA0000B4A00230144C2E900030839103A21F0FF
:104AB000070111604B600B600B1AC0E90013936093
:104AC0004FF000405360D060704700007804002031
:104AD00054000020134E144DA6F1C8074FF0805823
:104AE000DFF8489011E000F06FFFF068C468201D07
:104AF00000F01AFF2869401E2861E868401EE8603F
:104B000000F082FF2046FFF7A5FFE8680028EAD101
:104B100038680128F9D9C9F80080BFF34F8FBFF377
:104B20006F8FF2E7500400200800002004ED00E041
:104B30002DE9F0479A46DDE9098481466FF00303C9
:104B4000206B03EB82021044089D20F007067007DB
:104B500007D0502080F31188BFF34F8FBFF36F8FC2
:104B6000FEE723180A5C83F834200A5C12B1401C6B
:104B70001028F6D3002784F84370072D00D30625AC
:104B8000E562C4E91157201D00F0F7FE04F118009A
:104B900000F0F3FE2461C5F107006462A061E764E0
:104BA00084F8507052464946304600F0BFF8206005
:104BB000B8F1000F01D0C8F80040BDE8F087000050
:104BC00030B5114900E011460A688242FBD34B68B8
:104BD0005C18844203D14068184448600846436822
:104BE0001C18944209D1084C103C2468A24209D0F8
:104BF00052681A4442600A6812680260814200D01A
:104C0000086030BD0460F9E75400002006484168A0
:104C1000096829B14168C968C96849680163704772
:104C20004FF0FF31FAE70000080000200848406814
:104C3000401C4FF0500080F3118804D0BFF34F8F19
:104C4000BFF36F8FFEE7BFF34F8FBFF36F8FFEE7AA
:104C50005C0000202DE9F0410546002600F0DAFF57
:104C6000314F386808B9FFF70FFFF86805424BD19C
:104C7000C5B3083568070ED005F00700C0F108007D
:104C80000544680707D0502080F31188BFF34F8F89
:104C9000BFF36F8FFEE72DB37868854234D8224981
:104CA00010310846046801E0214604466068A842C5
:104CB00002D220680028F7D13868844224D00E68D8
:104CC0002068086060680836411B10290FD96019F8
:104CD000420708D0502080F31188BFF34F8FBFF3F5
:104CE0006F8FFEE710E041606560FFF769FF616864
:104CF0007868401A7860BA68904200D2B860F86864
:104D000001430020C4E9000101F016F9700707D043
:104D1000502080F31188BFF34F8FBFF36F8FFEE7F2
:104D20003046BDE8F08100004400002010B5031FAC
:104D30004FF080741C601B1F21F001011960191FC6
:104D4000044B0B6014390A60091F6FF002024438EB
:104D50000A6010BD2D4C00082DE9FF4F83B00546B9
:104D6000DDE911A9581EDDF84CB01E461446032893
:104D700003D3002007B0BDE8F08F41F2B001214815
:104D8000FBF739FC0122DFF87CC01746012E0FD05B
:104D9000022E0CD0032E25D100210CEB0100491C62
:104DA00080F8247C80F8647C4029F6DB1AE00A2233
:104DB000154E002106F14008705CB0FBF2F30CEBDD
:104DC000010080F8243C0BB980F8247C18F80130ED
:104DD000B3FBF2F380F8643C0BB980F8647C491CA7
:104DE0004029E9DB0948C0E90945064800F02CFCE8
:104DF000CDE900A95A460348109B049900F0DCF85D
:104E0000B8E70000DC820020396800085C8F0020D1
:104E1000C1B2000A40EA0120704710B5021E01DA53
:104E20004242401E01244C8002E04B885B1C4B80B8
:104E30005210FAD18A789440641E04400C8010BD50
:104E40002DE9FF4F91462DED028B83B09846DDE9A9
:104E500013764FF480725448DDF848B0DDF854A062
:104E6000FBF775FB504800F00FFB00249FED4F8AC5
:104E70004F4DF6EE008A4C4800EB840090ED000A9E
:104E800009EB8400D0ED000A20EE800A30EE080A1B
:104E900030EE280AFFF754FB30EE480A4549BDEED4
:104EA000C00A095D641C10EE100A402C45F8210070
:104EB000E1DB2968DAF80000CAF80010081A14D0FB
:104EC00001A9FFF7AAFFBDF806003BF810100091FA
:104ED000DDE9161218F80030059800F0F4FCBDF872
:104EE00004000090BDF8063004E0BBF8000000901C
:104EF00098F80030DDE91612059800F0E4FC4FF058
:104F000000083F20A94655F8201009B1804602E06C
:104F1000401E0028F6DC012429E0002503E0641C83
:104F20006D1C102D35D059F824000028F7D059F801
:104F3000240001A9FFF771FF4FF6FF70BDF80610BE
:104F400000EA0510084336F810100091DDE916124A
:104F50003B5C059800F0B7FCBDF80400DDE91612D3
:104F60000090BDF80630059800F0ADFC641C444587
:104F7000D3DDB8F13F0F07D030880090DDE916127D
:104F80003B78059800F09FFC03B0BDEC028BBDE8B8
:104F9000FF8FB6F8E0010090DDE9161297F8F030C7
:104FA000059800F090FCB8E78C9400200000804445
:104FB0008C930020556A00082DE9FF4FADF2545D37
:104FC0001D46DDF88CB591460446BBF1030F02D0B7
:104FD000BBF1040F07D14FF480318D4203DADDF8C5
:104FE0008805884204DB00200DF2645DBDE8F08F87
:104FF000DFF864C400210DF1180EF2EE001AACF1D6
:105000005F0804F6244AF7EE000A04F664460CEB47
:105010008102002092ED002A0CEB800200EBC1031C
:1050200092ED000A18F803200EEB830320EE210A0C
:1050300012F80A70401C01EE107A20EE020A0828CD
:10504000B8EE411A20EE011AC0EE812AC3ED402AC3
:10505000925D01EE102AB8EE411A20EE010A80EEB0
:10506000801A83ED001AD7DB491C0829CFDB4FF6E5
:10507000D870FFF7CDFEADF800004FF6E070FFF7F7
:10508000C7FEADF802001020FFF7C2FEADF8040025
:10509000F2480168CDF8061000798DF80A004FF447
:1050A0008170FFF7B5FEADF80B0001208DF80D0003
:1050B0006020FFF7ADFEADF80E006020FFF7A8FE00
:1050C000ADF810004FF000088DF812808DF81380B5
:1050D000012314226946204600F05AFB1E274FF692
:1050E000FE70FFF795FEADF818053846FFF790FE05
:1050F000D949ADF81A051C221F390DF21C50FBF7D7
:10510000E1F9012320220DF5A361204600F040FBC8
:1051100000225146204600F0ACFB012231462046D9
:1051200000F0A7FB4FF6C070FFF772FEADF800006D
:105130001120FFF76DFEADF8020008208DF8040085
:10514000A8B2FFF765FEADF80700DDF8880580B26C
:10515000FFF75EFEADF805004FF0030AC0A08DF822
:1051600009A00068CDF8180500206B460DF5A36670
:105170001127411C8DF814108DF81570315C00EB6F
:1051800040028DF816101A44BDF814C0A2F80AC0E7
:10519000401C11730328ECDB0123132269462046CF
:1051A00000F0F6FACDF80080464600232046D4F8F9
:1051B000142CD4F8041C00F01DFB0096012320469B
:1051C000D4F8182CD4F8081C00F014FB0127009721
:1051D00000232046D4F81C2CD4F80C1C00F00AFB49
:1051E000009701232046D4F8202CD4F8101C00F09E
:1051F00001FB4FF6DA70FFF70BFEADF800000C2054
:10520000FFF706FEADF8020096A08DF804A0006836
:10521000059000206A4605AB411C8DF81010195C02
:105220008DF8111002EB4001BDF81070401CA1F880
:1052300005700328F0DB3F2000268DF80C008DF868
:105240000B608DF80D6001230E226946204600F0A8
:105250009FFACDF84065CDF84465CDF84865CDF8A6
:105260003C650020CDF83865C5E0DDF858252946B5
:10527000484690470026B9E000210DF5067EDFED97
:105280007A2A9FED7A3A9FED7A5ADFED7A3ADFED8E
:105290007A5A9FED7A6AF6EE001A9FED794ADFEDB1
:1052A000794A0020321801FB052202FB0BF200EBC9
:1052B000C10C19F802704A4400EE107A53789278C3
:1052C000B8EE400A02EE103A401C082860EE220AAE
:1052D00000EE103AB8EE422AB8EE400A40EE030A59
:1052E00000EE102AB8EE400A40EE050A00EE107AF1
:1052F000B8EE400A30EEE31A60EE250A00EE103AEE
:10530000B8EE400A40EE460A00EE102AB8EE400A17
:1053100040EE210A00EE107AB8EE400A20EE210A93
:1053200002EE440A02EE102A0EEB8C02B8EE422A7C
:1053300082ED001AC6AA02EB8C0202EE640AC2EDEC
:10534000000A0DF5836202EB8C0282ED000AA9DBF4
:10535000491C0829A5DB04F204610DF5A767029139
:105360000DF23C580DF5A8620597CDE9032804F22B
:10537000011004F20441CDE90010234646AA71460B
:105380001846FFF75DFD04F6042002A90DF2445211
:105390000597CDF8240581E8050104F2033004F6F1
:1053A0000401CDF81815CDE9001004F20223CDF860
:1053B0001C0506AACDF82035C6A92046FFF740FDFA
:1053C000DDF8240502A90DF5A962059781E805011C
:1053D0000DF5A36006AA03C8DDF82035CDE900016C
:1053E0000DF583612046FFF72BFD0836AE42FFF630
:1053F00043AF0AF10800DDF8881582468842FFF6BF
:1054000034AFDDF83805411E07290AD20021C0F16A
:10541000080083B20DF5A7620091111D204600F02F
:1054200052FA4FF6D970FFF7F3FCADF84C050123A3
:1054300002220DF24C51204600F0AAF9D4F8AC2C0F
:1054400042B104F6A44004F54B6109C89847002016
:10545000C4F8AC0C0120C7E5B46A00083468000841
:1054600000010100001111008716993EA245163F68
:10547000D578E93D00000043B1BF2CBE27A0A93E6E
:10548000D95FD63E9D80A63D014607229FED6A4A20
:10549000DFED6A4A9FED6A5ADFED6A5A91ED000A24
:1054A00091ED071AD1ED011A91ED062A70EE010A6D
:1054B00030EE410A31EE821A71EEC22A91ED022AD3
:1054C00091ED053A91ED046A72EE031A32EE432A29
:1054D00091ED033A73EE063A33EE466A30EEA33AA4
:1054E00070EEE30A71EE213A31EE611A73EE231A7F
:1054F00031EE201AC1ED001A73EE631A21EE041A80
:1055000032EE223AC1ED041A70EE811A70EEC10A31
:10551000C1ED021A76EE021A32EE802AC1ED060AB9
:1055200071EEC20A20EEA41AF0EE410A02EE251A2C
:1055300023EE042A41EE850A70EE021A30EE420A8A
:1055400030EE202A30EE600A81ED052A81ED030A53
:1055500031EE810A81ED010A31EEC10A81ED070ABF
:105560002031521E9AD5072190ED000A90ED381A8D
:10557000D0ED081A90ED302A70EE010A30EE410AA3
:1055800031EE821A71EEC22A90ED102A90ED283A7F
:1055900090ED206A72EE031A32EE432A90ED183A2B
:1055A00073EE063A33EE466A30EEA33A70EEE30A43
:1055B00071EE213A31EE611A73EE231A31EE201AA0
:1055C000C0ED001A73EE631A21EE041A36EE023AA9
:1055D000C0ED201A72EE223A70EE811A70EEC10A06
:1055E00032EE802AC0ED101AC0ED300A73EE420A86
:1055F00060EEA41AF0EE610AB0EE611A63EE841A4E
:1056000043EE050A02EE251A30EE212A30EE610A39
:1056100070EE201A30EE600AC0ED281A80ED180AEC
:1056200032EE010A80ED080A32EE410A80ED380AB6
:10563000001D491E98D57047F304353F15EFC33E52
:10564000D48B0A3F753DA73F2DE9FF4F4D49C0F868
:10565000041C3831C0F8081C1C39C0F80C1CCE31B1
:10566000C0F8101CDA39C0F8141C3831C0F8181C06
:105670001C39C0F81C1CCE314FF0000EC0F8201CA5
:10568000CDF800E0CDF804E0CDF808E07146E8463A
:10569000CDF80CE000EB81030022D3F8043C58F86D
:1056A00021409D5C521C2C4448F82140102AF6DB16
:1056B000491C0429EEDBDFF8D0A0002404EB04220F
:1056C00002EB0A0500EB84010022D1F8047CA94614
:1056D0001146F34600234E1CF6B202E0AE54521CB3
:1056E0005B1C17F801C09C45F8DC491C05F802B0AA
:1056F0001029EFDBDFF894B000212A780BEB442768
:105700002E460B464FF6FF7C27F813105B1C491CF6
:10571000F55C89B29542F7D035B1521CD2B20CEA91
:1057200041019542F9D1EFE7641C042CC6DB00224D
:10573000D6465DF8223002EB022100EB8205DC1731
:105740000F1800EB422601EB0E09D5F814AC0BEB59
:105750004228002106F204461AF8015038F811C018
:1057600026F815C019F801C007F805C0491CCD1767
:10577000B1EB030CA541EFDB521C042AD9DBBDE8D9
:10578000FF8F0000B96800088C95002090990020D8
:105790002DE9F0410446D0F8AC0C88465A43A0F2FB
:1057A000FF3116464D42B54200D9154604F54B6708
:1057B00038442A464146FAF785FED4F8AC0C421923
:1057C000A2F54070C4F8AC2CFF3807D104F6A44011
:1057D000394609C898470020C4F8AC0CB54207D236
:1057E000721B08EB05012046BDE8F0410123CFE71D
:1057F000BDE8F0812DE9FE43804600240A9F1E4645
:1058000091460D462046295C401C0C441028FADBCA
:105810004FF6C470FFF7FCFAADF8000004F1130076
:1058200080B2FFF7F5FAADF8040047EA06108DF8EC
:1058300008000123022269464046FFF7A9FF012321
:10584000022201A94046FFF7A3FF01231A4602A93D
:105850004046FFF79DFF1023012229464046FFF7EF
:1058600097FF2346012249464046FFF791FFBDE8D6
:10587000FE83FEB5064614460D464FF6DB70FFF775
:10588000C7FAADF800000123022269463046FFF74F
:105890007FFF4320FFF7BCFAADF80400012302228A
:1058A00001A93046FFF774FF01238DF808401A461E
:1058B00002A93046FFF76CFF0123402229463046FB
:1058C000FFF766FFFEBD2DE9FC41074610680D4657
:1058D000144608991844C0F120032A6899400A43E5
:1058E0002A60002620601BE028680123000E8DF846
:1058F00000001A4669463846FFF74AFF9DF8000047
:10590000FF2807D101238DF804601A4601A9384603
:10591000FFF73EFF286800022860206808382060F2
:105920000828E1D2BDE8FC81D0E9013201699A6022
:10593000D0E901235A604A68824201D182684A60F4
:10594000002202610868401E086008687047000075
:10595000034B036003F1540008608020106070471F
:10596000F400002000F108014FF0FF32C0E90112FD
:10597000C160016100210160704700210161704731
:1059800030B50C68621C02D000F1080202E0026926
:1059900004E01A4653681D68A542FAD953684B6063
:1059A00099608A60516008610168491C016030BDDE
:1059B00042684A6093688B6093685960916008619F
:1059C0000168491C01607047502080F31188BFF3C3
:1059D0004F8FBFF36F8F0A494868401C4860012809
:1059E0000CD10848006810F0FF0F07D0502080F35A
:1059F0001188BFF34F8FBFF36F8FFEE77047000032
:105A00005C00002004ED00E00849486828B1401E11
:105A1000486001D180F311887047502080F31188CD
:105A2000BFF34F8FBFF36F8FFEE700005C000020D5
:105A300070B5002827D0144DA0F108046068E9680B
:105A4000084207D1502080F31188BFF34F8FBFF376
:105A50006F8FFEE722683AB1502080F31188BFF3C0
:105A60004F8FBFF36F8FFEE78843606000F0D2F87E
:105A700060686968084468602046FFF7A1F8BDE8DF
:105A8000704000F059BA70BD440000204FF0E02093
:105A900000210161816105494FF47A720968B1FB07
:105AA000F2F1491E416107210161704704000020A5
:105AB00010B5020014D00F48806B38B1502080F32D
:105AC0001188BFF34F8FBFF36F8FFEE700F0A2F88E
:105AD00000211046FEF71EFF00F02EFA002807D125
